{
  "_format": "hh-sol-artifact-1",
  "contractName": "Vendor",
  "sourceName": "contracts/Vendor.sol",
  "abi": [
    {
      "inputs": [
        {
          "internalType": "address",
          "name": "tokenAddress",
          "type": "address"
        },
        {
          "internalType": "uint256",
          "name": "_tokensPerMatic",
          "type": "uint256"
        }
      ],
      "stateMutability": "nonpayable",
      "type": "constructor"
    },
    {
      "anonymous": false,
      "inputs": [
        {
          "indexed": false,
          "internalType": "address",
          "name": "buyer",
          "type": "address"
        },
        {
          "indexed": false,
          "internalType": "uint256",
          "name": "amountOfMATIC",
          "type": "uint256"
        },
        {
          "indexed": false,
          "internalType": "uint256",
          "name": "amountOfTokens",
          "type": "uint256"
        }
      ],
      "name": "BuyTokens",
      "type": "event"
    },
    {
      "anonymous": false,
      "inputs": [
        {
          "indexed": true,
          "internalType": "address",
          "name": "previousOwner",
          "type": "address"
        },
        {
          "indexed": true,
          "internalType": "address",
          "name": "newOwner",
          "type": "address"
        }
      ],
      "name": "OwnershipTransferred",
      "type": "event"
    },
    {
      "anonymous": false,
      "inputs": [
        {
          "indexed": false,
          "internalType": "address",
          "name": "seller",
          "type": "address"
        },
        {
          "indexed": false,
          "internalType": "uint256",
          "name": "amountOfTokens",
          "type": "uint256"
        },
        {
          "indexed": false,
          "internalType": "uint256",
          "name": "amountOfMATIC",
          "type": "uint256"
        }
      ],
      "name": "SellTokens",
      "type": "event"
    },
    {
      "inputs": [],
      "name": "buyTokens",
      "outputs": [
        {
          "internalType": "uint256",
          "name": "tokenAmount",
          "type": "uint256"
        }
      ],
      "stateMutability": "payable",
      "type": "function"
    },
    {
      "inputs": [],
      "name": "maxWithdrawPercent",
      "outputs": [
        {
          "internalType": "uint256",
          "name": "",
          "type": "uint256"
        }
      ],
      "stateMutability": "view",
      "type": "function"
    },
    {
      "inputs": [],
      "name": "owner",
      "outputs": [
        {
          "internalType": "address",
          "name": "",
          "type": "address"
        }
      ],
      "stateMutability": "view",
      "type": "function"
    },
    {
      "inputs": [],
      "name": "renounceOwnership",
      "outputs": [],
      "stateMutability": "nonpayable",
      "type": "function"
    },
    {
      "inputs": [
        {
          "internalType": "uint256",
          "name": "noOfTokensToSell",
          "type": "uint256"
        }
      ],
      "name": "sellTokens",
      "outputs": [],
      "stateMutability": "nonpayable",
      "type": "function"
    },
    {
      "inputs": [],
      "name": "tokensPerMATIC",
      "outputs": [
        {
          "internalType": "uint256",
          "name": "",
          "type": "uint256"
        }
      ],
      "stateMutability": "view",
      "type": "function"
    },
    {
      "inputs": [
        {
          "internalType": "address",
          "name": "newOwner",
          "type": "address"
        }
      ],
      "name": "transferOwnership",
      "outputs": [],
      "stateMutability": "nonpayable",
      "type": "function"
    },
    {
      "inputs": [
        {
          "internalType": "uint256",
          "name": "newRate",
          "type": "uint256"
        }
      ],
      "name": "updateTokensPerMATIC",
      "outputs": [],
      "stateMutability": "nonpayable",
      "type": "function"
    },
    {
      "inputs": [
        {
          "internalType": "uint256",
          "name": "newLimit",
          "type": "uint256"
        }
      ],
      "name": "updateWithdrawPercentLimit",
      "outputs": [],
      "stateMutability": "nonpayable",
      "type": "function"
    },
    {
      "inputs": [
        {
          "internalType": "uint256",
          "name": "withdrawAmount",
          "type": "uint256"
        }
      ],
      "name": "withdraw",
      "outputs": [],
      "stateMutability": "nonpayable",
      "type": "function"
    },
    {
      "inputs": [],
      "name": "withdrawLimit",
      "outputs": [
        {
          "internalType": "uint256",
          "name": "",
          "type": "uint256"
        }
      ],
      "stateMutability": "view",
      "type": "function"
    },
    {
      "inputs": [],
      "name": "withdrawMax",
      "outputs": [],
      "stateMutability": "nonpayable",
      "type": "function"
    }
  ],
  "bytecode": "0x6080604052600060035560506004553480156200001b57600080fd5b506040516200229c3803806200229c833981810160405281019062000041919062000222565b6200006162000055620000b160201b60201c565b620000b960201b60201c565b81600160006101000a81548173ffffffffffffffffffffffffffffffffffffffff021916908373ffffffffffffffffffffffffffffffffffffffff16021790555080600281905550505062000269565b600033905090565b60008060009054906101000a900473ffffffffffffffffffffffffffffffffffffffff169050816000806101000a81548173ffffffffffffffffffffffffffffffffffffffff021916908373ffffffffffffffffffffffffffffffffffffffff1602179055508173ffffffffffffffffffffffffffffffffffffffff168173ffffffffffffffffffffffffffffffffffffffff167f8be0079c531659141344cd1fd0a4f28419497f9722a3daafe3b4186f6b6457e060405160405180910390a35050565b600080fd5b600073ffffffffffffffffffffffffffffffffffffffff82169050919050565b6000620001af8262000182565b9050919050565b620001c181620001a2565b8114620001cd57600080fd5b50565b600081519050620001e181620001b6565b92915050565b6000819050919050565b620001fc81620001e7565b81146200020857600080fd5b50565b6000815190506200021c81620001f1565b92915050565b600080604083850312156200023c576200023b6200017d565b5b60006200024c85828601620001d0565b92505060206200025f858286016200020b565b9150509250929050565b61202380620002796000396000f3fe6080604052600436106100a75760003560e01c80639832fc63116100645780639832fc6314610194578063a7296e61146101bd578063d0febe4c146101e8578063e5cd8b6a14610206578063f2fde38b1461021d578063f848d54114610246576100a7565b80631e10f92e146100ac5780632e1a7d4d146100d75780633a1e16eb146101005780636c11bcd314610129578063715018a6146101525780638da5cb5b14610169575b600080fd5b3480156100b857600080fd5b506100c1610271565b6040516100ce919061119f565b60405180910390f35b3480156100e357600080fd5b506100fe60048036038101906100f991906111eb565b610277565b005b34801561010c57600080fd5b50610127600480360381019061012291906111eb565b610515565b005b34801561013557600080fd5b50610150600480360381019061014b91906111eb565b61059b565b005b34801561015e57600080fd5b5061016761093f565b005b34801561017557600080fd5b5061017e6109c7565b60405161018b9190611259565b60405180910390f35b3480156101a057600080fd5b506101bb60048036038101906101b691906111eb565b6109f0565b005b3480156101c957600080fd5b506101d2610afd565b6040516101df919061119f565b60405180910390f35b6101f0610b03565b6040516101fd919061119f565b60405180910390f35b34801561021257600080fd5b5061021b610db4565b005b34801561022957600080fd5b50610244600480360381019061023f91906112a0565b610fbc565b005b34801561025257600080fd5b5061025b6110b4565b604051610268919061119f565b60405180910390f35b60025481565b61027f6110ba565b73ffffffffffffffffffffffffffffffffffffffff1661029d6109c7565b73ffffffffffffffffffffffffffffffffffffffff16146102f3576040517f08c379a00000000000000000000000000000000000000000000000000000000081526004016102ea9061132a565b60405180910390fd5b60008111610336576040517f08c379a000000000000000000000000000000000000000000000000000000000815260040161032d906113bc565b60405180910390fd5b60006003541161037b576040517f08c379a000000000000000000000000000000000000000000000000000000000815260040161037290611428565b60405180910390fd5b8060035410156103c0576040517f08c379a00000000000000000000000000000000000000000000000000000000081526004016103b7906114ba565b60405180910390fd5b600047905060008111610408576040517f08c379a00000000000000000000000000000000000000000000000000000000081526004016103ff9061154c565b60405180910390fd5b8082111561044b576040517f08c379a0000000000000000000000000000000000000000000000000000000008152600401610442906115de565b60405180910390fd5b60003373ffffffffffffffffffffffffffffffffffffffff16836040516104719061162f565b60006040518083038185875af1925050503d80600081146104ae576040519150601f19603f3d011682016040523d82523d6000602084013e6104b3565b606091505b50509050806104f7576040517f08c379a00000000000000000000000000000000000000000000000000000000081526004016104ee906116b6565b60405180910390fd5b82600360008282546105099190611705565b92505081905550505050565b61051d6110ba565b73ffffffffffffffffffffffffffffffffffffffff1661053b6109c7565b73ffffffffffffffffffffffffffffffffffffffff1614610591576040517f08c379a00000000000000000000000000000000000000000000000000000000081526004016105889061132a565b60405180910390fd5b8060028190555050565b600081116105de576040517f08c379a00000000000000000000000000000000000000000000000000000000081526004016105d5906117ab565b60405180910390fd5b6000600160009054906101000a900473ffffffffffffffffffffffffffffffffffffffff1673ffffffffffffffffffffffffffffffffffffffff166370a08231336040518263ffffffff1660e01b815260040161063b9190611259565b60206040518083038186803b15801561065357600080fd5b505afa158015610667573d6000803e3d6000fd5b505050506040513d601f19601f8201168201806040525081019061068b91906117e0565b9050818110156106d0576040517f08c379a00000000000000000000000000000000000000000000000000000000081526004016106c79061187f565b60405180910390fd5b6000600254836106e091906118ce565b905060004790508181101561072a576040517f08c379a000000000000000000000000000000000000000000000000000000000815260040161072190611971565b60405180910390fd5b6000600160009054906101000a900473ffffffffffffffffffffffffffffffffffffffff1673ffffffffffffffffffffffffffffffffffffffff166323b872dd3330886040518463ffffffff1660e01b815260040161078b93929190611991565b602060405180830381600087803b1580156107a557600080fd5b505af11580156107b9573d6000803e3d6000fd5b505050506040513d601f19601f820116820180604052508101906107dd9190611a00565b90508061081f576040517f08c379a000000000000000000000000000000000000000000000000000000000815260040161081690611a9f565b60405180910390fd5b3373ffffffffffffffffffffffffffffffffffffffff16836040516108439061162f565b60006040518083038185875af1925050503d8060008114610880576040519150601f19603f3d011682016040523d82523d6000602084013e610885565b606091505b505080915050806108cb576040517f08c379a00000000000000000000000000000000000000000000000000000000081526004016108c290611b0b565b60405180910390fd5b6064600454846108db9190611b2b565b6108e591906118ce565b600360008282546108f69190611705565b925050819055507fa24838acd4af5195a2396965dae5abf54e84e8c19f5698bb966ae64e29994ee533868560405161093093929190611b85565b60405180910390a15050505050565b6109476110ba565b73ffffffffffffffffffffffffffffffffffffffff166109656109c7565b73ffffffffffffffffffffffffffffffffffffffff16146109bb576040517f08c379a00000000000000000000000000000000000000000000000000000000081526004016109b29061132a565b60405180910390fd5b6109c560006110c2565b565b60008060009054906101000a900473ffffffffffffffffffffffffffffffffffffffff16905090565b6109f86110ba565b73ffffffffffffffffffffffffffffffffffffffff16610a166109c7565b73ffffffffffffffffffffffffffffffffffffffff1614610a6c576040517f08c379a0000000000000000000000000000000000000000000000000000000008152600401610a639061132a565b60405180910390fd5b60008111610aaf576040517f08c379a0000000000000000000000000000000000000000000000000000000008152600401610aa690611c2e565b60405180910390fd5b6064811115610af3576040517f08c379a0000000000000000000000000000000000000000000000000000000008152600401610aea90611cc0565b60405180910390fd5b8060048190555050565b60045481565b6000803411610b47576040517f08c379a0000000000000000000000000000000000000000000000000000000008152600401610b3e90611d2c565b60405180910390fd5b600060025434610b579190611b2b565b90506000600160009054906101000a900473ffffffffffffffffffffffffffffffffffffffff1673ffffffffffffffffffffffffffffffffffffffff166370a08231306040518263ffffffff1660e01b8152600401610bb69190611259565b60206040518083038186803b158015610bce57600080fd5b505afa158015610be2573d6000803e3d6000fd5b505050506040513d601f19601f82011682018060405250810190610c0691906117e0565b905081811015610c4b576040517f08c379a0000000000000000000000000000000000000000000000000000000008152600401610c4290611dbe565b60405180910390fd5b6000600160009054906101000a900473ffffffffffffffffffffffffffffffffffffffff1673ffffffffffffffffffffffffffffffffffffffff1663a9059cbb33856040518363ffffffff1660e01b8152600401610caa929190611dde565b602060405180830381600087803b158015610cc457600080fd5b505af1158015610cd8573d6000803e3d6000fd5b505050506040513d601f19601f82011682018060405250810190610cfc9190611a00565b905080610d3e576040517f08c379a0000000000000000000000000000000000000000000000000000000008152600401610d3590611e53565b60405180910390fd5b606460045434610d4e9190611b2b565b610d5891906118ce565b60036000828254610d699190611e73565b925050819055507f0a37b72bb67eee30e09084cf386f8a17817c57f620c3ab95fb25d6a20356ec77333485604051610da393929190611b85565b60405180910390a182935050505090565b610dbc6110ba565b73ffffffffffffffffffffffffffffffffffffffff16610dda6109c7565b73ffffffffffffffffffffffffffffffffffffffff1614610e30576040517f08c379a0000000000000000000000000000000000000000000000000000000008152600401610e279061132a565b60405180910390fd5b600047905060008111610e78576040517f08c379a0000000000000000000000000000000000000000000000000000000008152600401610e6f9061154c565b60405180910390fd5b600060035411610ebd576040517f08c379a0000000000000000000000000000000000000000000000000000000008152600401610eb490611428565b60405180910390fd5b806003541115610f02576040517f08c379a0000000000000000000000000000000000000000000000000000000008152600401610ef990611f3b565b60405180910390fd5b60003373ffffffffffffffffffffffffffffffffffffffff16600354604051610f2a9061162f565b60006040518083038185875af1925050503d8060008114610f67576040519150601f19603f3d011682016040523d82523d6000602084013e610f6c565b606091505b5050905080610fb0576040517f08c379a0000000000000000000000000000000000000000000000000000000008152600401610fa7906116b6565b60405180910390fd5b60006003819055505050565b610fc46110ba565b73ffffffffffffffffffffffffffffffffffffffff16610fe26109c7565b73ffffffffffffffffffffffffffffffffffffffff1614611038576040517f08c379a000000000000000000000000000000000000000000000000000000000815260040161102f9061132a565b60405180910390fd5b600073ffffffffffffffffffffffffffffffffffffffff168173ffffffffffffffffffffffffffffffffffffffff1614156110a8576040517f08c379a000000000000000000000000000000000000000000000000000000000815260040161109f90611fcd565b60405180910390fd5b6110b1816110c2565b50565b60035481565b600033905090565b60008060009054906101000a900473ffffffffffffffffffffffffffffffffffffffff169050816000806101000a81548173ffffffffffffffffffffffffffffffffffffffff021916908373ffffffffffffffffffffffffffffffffffffffff1602179055508173ffffffffffffffffffffffffffffffffffffffff168173ffffffffffffffffffffffffffffffffffffffff167f8be0079c531659141344cd1fd0a4f28419497f9722a3daafe3b4186f6b6457e060405160405180910390a35050565b6000819050919050565b61119981611186565b82525050565b60006020820190506111b46000830184611190565b92915050565b600080fd5b6111c881611186565b81146111d357600080fd5b50565b6000813590506111e5816111bf565b92915050565b600060208284031215611201576112006111ba565b5b600061120f848285016111d6565b91505092915050565b600073ffffffffffffffffffffffffffffffffffffffff82169050919050565b600061124382611218565b9050919050565b61125381611238565b82525050565b600060208201905061126e600083018461124a565b92915050565b61127d81611238565b811461128857600080fd5b50565b60008135905061129a81611274565b92915050565b6000602082840312156112b6576112b56111ba565b5b60006112c48482850161128b565b91505092915050565b600082825260208201905092915050565b7f4f776e61626c653a2063616c6c6572206973206e6f7420746865206f776e6572600082015250565b60006113146020836112cd565b915061131f826112de565b602082019050919050565b6000602082019050818103600083015261134381611307565b9050919050565b7f576974686472617720616d6f756e742073686f756c6420626520706f7369746960008201527f7665000000000000000000000000000000000000000000000000000000000000602082015250565b60006113a66022836112cd565b91506113b18261134a565b604082019050919050565b600060208201905081810360008301526113d581611399565b9050919050565b7f5769746864726177206c696d6974206973203000000000000000000000000000600082015250565b60006114126013836112cd565b915061141d826113dc565b602082019050919050565b6000602082019050818103600083015261144181611405565b9050919050565b7f576974686472617720616d6f756e742069732067726561746572207468616e2060008201527f616c6c6f776564206c696d697400000000000000000000000000000000000000602082015250565b60006114a4602d836112cd565b91506114af82611448565b604082019050919050565b600060208201905081810360008301526114d381611497565b9050919050565b7f4f776e657220686173206e6f742062616c616e636520746f207769746864726160008201527f7700000000000000000000000000000000000000000000000000000000000000602082015250565b60006115366021836112cd565b9150611541826114da565b604082019050919050565b6000602082019050818103600083015261156581611529565b9050919050565b7f4f776e65722066756e647320617265206c657373207468616e2077697468647260008201527f617720616d6f756e740000000000000000000000000000000000000000000000602082015250565b60006115c86029836112cd565b91506115d38261156c565b604082019050919050565b600060208201905081810360008301526115f7816115bb565b9050919050565b600081905092915050565b50565b60006116196000836115fe565b915061162482611609565b600082019050919050565b600061163a8261160c565b9150819050919050565b7f4661696c656420746f2073656e6420757365722062616c616e6365206261636b60008201527f20746f20746865206f776e657200000000000000000000000000000000000000602082015250565b60006116a0602d836112cd565b91506116ab82611644565b604082019050919050565b600060208201905081810360008301526116cf81611693565b9050919050565b7f4e487b7100000000000000000000000000000000000000000000000000000000600052601160045260246000fd5b600061171082611186565b915061171b83611186565b92508282101561172e5761172d6116d6565b5b828203905092915050565b7f5370656369667920616e20616d6f756e74206f6620746f6b656e20677265617460008201527f6572207468616e207a65726f0000000000000000000000000000000000000000602082015250565b6000611795602c836112cd565b91506117a082611739565b604082019050919050565b600060208201905081810360008301526117c481611788565b9050919050565b6000815190506117da816111bf565b92915050565b6000602082840312156117f6576117f56111ba565b5b6000611804848285016117cb565b91505092915050565b7f596f75722062616c616e6365206973206c6f776572207468616e20746865206160008201527f6d6f756e74206f6620746f6b656e7320796f752077616e7420746f2073656c6c602082015250565b60006118696040836112cd565b91506118748261180d565b604082019050919050565b600060208201905081810360008301526118988161185c565b9050919050565b7f4e487b7100000000000000000000000000000000000000000000000000000000600052601260045260246000fd5b60006118d982611186565b91506118e483611186565b9250826118f4576118f361189f565b5b828204905092915050565b7f56656e646f7220686173206e6f7420656e6f7567682066756e647320746f206160008201527f6363657074207468652073656c6c207265717565737400000000000000000000602082015250565b600061195b6036836112cd565b9150611966826118ff565b604082019050919050565b6000602082019050818103600083015261198a8161194e565b9050919050565b60006060820190506119a6600083018661124a565b6119b3602083018561124a565b6119c06040830184611190565b949350505050565b60008115159050919050565b6119dd816119c8565b81146119e857600080fd5b50565b6000815190506119fa816119d4565b92915050565b600060208284031215611a1657611a156111ba565b5b6000611a24848285016119eb565b91505092915050565b7f4661696c656420746f207472616e7366657220746f6b656e732066726f6d207560008201527f73657220746f2076656e646f7200000000000000000000000000000000000000602082015250565b6000611a89602d836112cd565b9150611a9482611a2d565b604082019050919050565b60006020820190508181036000830152611ab881611a7c565b9050919050565b7f4661696c656420746f2073656e64204d4154494320746f207468652075736572600082015250565b6000611af56020836112cd565b9150611b0082611abf565b602082019050919050565b60006020820190508181036000830152611b2481611ae8565b9050919050565b6000611b3682611186565b9150611b4183611186565b9250817fffffffffffffffffffffffffffffffffffffffffffffffffffffffffffffffff0483118215151615611b7a57611b796116d6565b5b828202905092915050565b6000606082019050611b9a600083018661124a565b611ba76020830185611190565b611bb46040830184611190565b949350505050565b7f5769746864726177206c696d69742063616e2774206265206c6573732074686160008201527f6e20302500000000000000000000000000000000000000000000000000000000602082015250565b6000611c186024836112cd565b9150611c2382611bbc565b604082019050919050565b60006020820190508181036000830152611c4781611c0b565b9050919050565b7f5769746864726177206c696d69742063616e277420626520677265617465722060008201527f7468616e20313030250000000000000000000000000000000000000000000000602082015250565b6000611caa6029836112cd565b9150611cb582611c4e565b604082019050919050565b60006020820190508181036000830152611cd981611c9d565b9050919050565b7f53656e64204d4154494320746f2062757920736f6d6520746f6b656e73000000600082015250565b6000611d16601d836112cd565b9150611d2182611ce0565b602082019050919050565b60006020820190508181036000830152611d4581611d09565b9050919050565b7f56656e646f7220636f6e747261637420686173206e6f7420656e6f756768207460008201527f6f6b656e7320696e206974732062616c616e6365000000000000000000000000602082015250565b6000611da86034836112cd565b9150611db382611d4c565b604082019050919050565b60006020820190508181036000830152611dd781611d9b565b9050919050565b6000604082019050611df3600083018561124a565b611e006020830184611190565b9392505050565b7f4661696c656420746f207472616e7366657220746f6b656e20746f2075736572600082015250565b6000611e3d6020836112cd565b9150611e4882611e07565b602082019050919050565b60006020820190508181036000830152611e6c81611e30565b9050919050565b6000611e7e82611186565b9150611e8983611186565b9250827fffffffffffffffffffffffffffffffffffffffffffffffffffffffffffffffff03821115611ebe57611ebd6116d6565b5b828201905092915050565b7f4f776e65722066756e647320617265206c657373207468616e2077697468647260008201527f61776c206c696d69742e00000000000000000000000000000000000000000000602082015250565b6000611f25602a836112cd565b9150611f3082611ec9565b604082019050919050565b60006020820190508181036000830152611f5481611f18565b9050919050565b7f4f776e61626c653a206e6577206f776e657220697320746865207a65726f206160008201527f6464726573730000000000000000000000000000000000000000000000000000602082015250565b6000611fb76026836112cd565b9150611fc282611f5b565b604082019050919050565b60006020820190508181036000830152611fe681611faa565b905091905056fea2646970667358221220f390aae8af55f84d88807c9433147e75cc674f52e4dcda109fecd6829553cf4764736f6c63430008090033",
  "linkReferences": {},
  "deployedLinkReferences": {}
}