{
  "_format": "hh-sol-artifact-1",
  "contractName": "ShitAI",
  "sourceName": "contracts/Token.sol",
  "abi": [
    {
      "inputs": [],
      "stateMutability": "nonpayable",
      "type": "constructor"
    },
    {
      "anonymous": false,
      "inputs": [
        {
          "indexed": false,
          "internalType": "string",
          "name": "tg_user_chan",
          "type": "string"
        },
        {
          "indexed": false,
          "internalType": "bool",
          "name": "_isChannel",
          "type": "bool"
        },
        {
          "indexed": false,
          "internalType": "bool",
          "name": "_isUnlocked",
          "type": "bool"
        },
        {
          "indexed": false,
          "internalType": "uint256",
          "name": "_unlockBlock",
          "type": "uint256"
        },
        {
          "indexed": false,
          "internalType": "uint256",
          "name": "_amtPaid",
          "type": "uint256"
        }
      ],
      "name": "AdminModifierSet",
      "type": "event"
    },
    {
      "anonymous": false,
      "inputs": [
        {
          "indexed": true,
          "internalType": "address",
          "name": "owner",
          "type": "address"
        },
        {
          "indexed": true,
          "internalType": "address",
          "name": "spender",
          "type": "address"
        },
        {
          "indexed": false,
          "internalType": "uint256",
          "name": "value",
          "type": "uint256"
        }
      ],
      "name": "Approval",
      "type": "event"
    },
    {
      "anonymous": false,
      "inputs": [
        {
          "indexed": false,
          "internalType": "string",
          "name": "tg_channel",
          "type": "string"
        },
        {
          "indexed": false,
          "internalType": "uint256",
          "name": "unlockTime",
          "type": "uint256"
        }
      ],
      "name": "ChannelUnlocked",
      "type": "event"
    },
    {
      "anonymous": false,
      "inputs": [
        {
          "indexed": false,
          "internalType": "bool",
          "name": "_isEth",
          "type": "bool"
        },
        {
          "indexed": false,
          "internalType": "bool",
          "name": "_isChannel",
          "type": "bool"
        },
        {
          "indexed": false,
          "internalType": "uint256",
          "name": "_cost",
          "type": "uint256"
        }
      ],
      "name": "CostUpdated",
      "type": "event"
    },
    {
      "anonymous": false,
      "inputs": [
        {
          "indexed": false,
          "internalType": "address",
          "name": "_address",
          "type": "address"
        },
        {
          "indexed": false,
          "internalType": "bool",
          "name": "_status",
          "type": "bool"
        }
      ],
      "name": "ExcludedFromFeeUpdated",
      "type": "event"
    },
    {
      "anonymous": false,
      "inputs": [
        {
          "indexed": true,
          "internalType": "address",
          "name": "previousOwner",
          "type": "address"
        },
        {
          "indexed": true,
          "internalType": "address",
          "name": "newOwner",
          "type": "address"
        }
      ],
      "name": "OwnershipTransferred",
      "type": "event"
    },
    {
      "anonymous": false,
      "inputs": [
        {
          "indexed": false,
          "internalType": "address",
          "name": "_address",
          "type": "address"
        }
      ],
      "name": "PairUpdated",
      "type": "event"
    },
    {
      "anonymous": false,
      "inputs": [
        {
          "indexed": false,
          "internalType": "uint256",
          "name": "tokensSwapped",
          "type": "uint256"
        },
        {
          "indexed": false,
          "internalType": "uint256",
          "name": "ethReceived",
          "type": "uint256"
        },
        {
          "indexed": false,
          "internalType": "uint256",
          "name": "tokensIntoLiqudity",
          "type": "uint256"
        }
      ],
      "name": "SwapAndLiquify",
      "type": "event"
    },
    {
      "anonymous": false,
      "inputs": [
        {
          "indexed": true,
          "internalType": "address",
          "name": "from",
          "type": "address"
        },
        {
          "indexed": true,
          "internalType": "address",
          "name": "to",
          "type": "address"
        },
        {
          "indexed": false,
          "internalType": "uint256",
          "name": "value",
          "type": "uint256"
        }
      ],
      "name": "Transfer",
      "type": "event"
    },
    {
      "anonymous": false,
      "inputs": [
        {
          "indexed": false,
          "internalType": "string",
          "name": "tg_username",
          "type": "string"
        },
        {
          "indexed": false,
          "internalType": "uint256",
          "name": "unlockTime",
          "type": "uint256"
        }
      ],
      "name": "UserUnlocked",
      "type": "event"
    },
    {
      "inputs": [],
      "name": "DEAD",
      "outputs": [
        {
          "internalType": "address",
          "name": "",
          "type": "address"
        }
      ],
      "stateMutability": "view",
      "type": "function"
    },
    {
      "inputs": [
        {
          "internalType": "address",
          "name": "",
          "type": "address"
        }
      ],
      "name": "_isExcludedFromFee",
      "outputs": [
        {
          "internalType": "bool",
          "name": "",
          "type": "bool"
        }
      ],
      "stateMutability": "view",
      "type": "function"
    },
    {
      "inputs": [],
      "name": "_marketingReserves",
      "outputs": [
        {
          "internalType": "uint256",
          "name": "",
          "type": "uint256"
        }
      ],
      "stateMutability": "view",
      "type": "function"
    },
    {
      "inputs": [
        {
          "internalType": "address",
          "name": "owner",
          "type": "address"
        },
        {
          "internalType": "address",
          "name": "spender",
          "type": "address"
        }
      ],
      "name": "allowance",
      "outputs": [
        {
          "internalType": "uint256",
          "name": "",
          "type": "uint256"
        }
      ],
      "stateMutability": "view",
      "type": "function"
    },
    {
      "inputs": [
        {
          "internalType": "address",
          "name": "spender",
          "type": "address"
        },
        {
          "internalType": "uint256",
          "name": "amount",
          "type": "uint256"
        }
      ],
      "name": "approve",
      "outputs": [
        {
          "internalType": "bool",
          "name": "",
          "type": "bool"
        }
      ],
      "stateMutability": "nonpayable",
      "type": "function"
    },
    {
      "inputs": [
        {
          "internalType": "address",
          "name": "account",
          "type": "address"
        }
      ],
      "name": "balanceOf",
      "outputs": [
        {
          "internalType": "uint256",
          "name": "",
          "type": "uint256"
        }
      ],
      "stateMutability": "view",
      "type": "function"
    },
    {
      "inputs": [
        {
          "internalType": "address",
          "name": "newWallet",
          "type": "address"
        }
      ],
      "name": "changeMarketingWallet",
      "outputs": [
        {
          "internalType": "bool",
          "name": "",
          "type": "bool"
        }
      ],
      "stateMutability": "nonpayable",
      "type": "function"
    },
    {
      "inputs": [
        {
          "internalType": "uint256",
          "name": "_maxTxAmount",
          "type": "uint256"
        }
      ],
      "name": "changeMaxTxAmount",
      "outputs": [
        {
          "internalType": "bool",
          "name": "",
          "type": "bool"
        }
      ],
      "stateMutability": "nonpayable",
      "type": "function"
    },
    {
      "inputs": [
        {
          "internalType": "uint256",
          "name": "_maxWalletAmount",
          "type": "uint256"
        }
      ],
      "name": "changeMaxWalletAmount",
      "outputs": [
        {
          "internalType": "bool",
          "name": "",
          "type": "bool"
        }
      ],
      "stateMutability": "nonpayable",
      "type": "function"
    },
    {
      "inputs": [
        {
          "internalType": "uint256",
          "name": "_numTokensSellToAddToLiquidity",
          "type": "uint256"
        },
        {
          "internalType": "uint256",
          "name": "_numTokensSellToAddToETH",
          "type": "uint256"
        }
      ],
      "name": "changeSwapThresholds",
      "outputs": [
        {
          "internalType": "bool",
          "name": "",
          "type": "bool"
        }
      ],
      "stateMutability": "nonpayable",
      "type": "function"
    },
    {
      "inputs": [
        {
          "internalType": "uint256",
          "name": "_taxForLiquidity",
          "type": "uint256"
        },
        {
          "internalType": "uint256",
          "name": "_taxForMarketing",
          "type": "uint256"
        }
      ],
      "name": "changeTaxForLiquidityAndMarketing",
      "outputs": [
        {
          "internalType": "bool",
          "name": "",
          "type": "bool"
        }
      ],
      "stateMutability": "nonpayable",
      "type": "function"
    },
    {
      "inputs": [],
      "name": "channelCostEth",
      "outputs": [
        {
          "internalType": "uint256",
          "name": "",
          "type": "uint256"
        }
      ],
      "stateMutability": "view",
      "type": "function"
    },
    {
      "inputs": [],
      "name": "channelCostTokens",
      "outputs": [
        {
          "internalType": "uint256",
          "name": "",
          "type": "uint256"
        }
      ],
      "stateMutability": "view",
      "type": "function"
    },
    {
      "inputs": [],
      "name": "decimals",
      "outputs": [
        {
          "internalType": "uint8",
          "name": "",
          "type": "uint8"
        }
      ],
      "stateMutability": "view",
      "type": "function"
    },
    {
      "inputs": [
        {
          "internalType": "address",
          "name": "spender",
          "type": "address"
        },
        {
          "internalType": "uint256",
          "name": "subtractedValue",
          "type": "uint256"
        }
      ],
      "name": "decreaseAllowance",
      "outputs": [
        {
          "internalType": "bool",
          "name": "",
          "type": "bool"
        }
      ],
      "stateMutability": "nonpayable",
      "type": "function"
    },
    {
      "inputs": [
        {
          "internalType": "address",
          "name": "_address",
          "type": "address"
        },
        {
          "internalType": "bool",
          "name": "_status",
          "type": "bool"
        }
      ],
      "name": "excludeFromFee",
      "outputs": [],
      "stateMutability": "nonpayable",
      "type": "function"
    },
    {
      "inputs": [
        {
          "internalType": "string",
          "name": "tg_user_chan",
          "type": "string"
        },
        {
          "internalType": "bool",
          "name": "_isChannel",
          "type": "bool"
        }
      ],
      "name": "getAmtPaid",
      "outputs": [
        {
          "internalType": "uint256",
          "name": "",
          "type": "uint256"
        }
      ],
      "stateMutability": "view",
      "type": "function"
    },
    {
      "inputs": [
        {
          "internalType": "string",
          "name": "tg_user_chan",
          "type": "string"
        },
        {
          "internalType": "bool",
          "name": "_isChannel",
          "type": "bool"
        }
      ],
      "name": "getUnlockBlock",
      "outputs": [
        {
          "internalType": "uint256",
          "name": "",
          "type": "uint256"
        }
      ],
      "stateMutability": "view",
      "type": "function"
    },
    {
      "inputs": [
        {
          "internalType": "address",
          "name": "spender",
          "type": "address"
        },
        {
          "internalType": "uint256",
          "name": "addedValue",
          "type": "uint256"
        }
      ],
      "name": "increaseAllowance",
      "outputs": [
        {
          "internalType": "bool",
          "name": "",
          "type": "bool"
        }
      ],
      "stateMutability": "nonpayable",
      "type": "function"
    },
    {
      "inputs": [
        {
          "internalType": "string",
          "name": "tg_user_chan",
          "type": "string"
        },
        {
          "internalType": "bool",
          "name": "_isChannel",
          "type": "bool"
        }
      ],
      "name": "isUnlocked",
      "outputs": [
        {
          "internalType": "bool",
          "name": "",
          "type": "bool"
        }
      ],
      "stateMutability": "view",
      "type": "function"
    },
    {
      "inputs": [],
      "name": "marketingWallet",
      "outputs": [
        {
          "internalType": "address",
          "name": "",
          "type": "address"
        }
      ],
      "stateMutability": "view",
      "type": "function"
    },
    {
      "inputs": [],
      "name": "maxTxAmount",
      "outputs": [
        {
          "internalType": "uint256",
          "name": "",
          "type": "uint256"
        }
      ],
      "stateMutability": "view",
      "type": "function"
    },
    {
      "inputs": [],
      "name": "maxWalletAmount",
      "outputs": [
        {
          "internalType": "uint256",
          "name": "",
          "type": "uint256"
        }
      ],
      "stateMutability": "view",
      "type": "function"
    },
    {
      "inputs": [],
      "name": "name",
      "outputs": [
        {
          "internalType": "string",
          "name": "",
          "type": "string"
        }
      ],
      "stateMutability": "view",
      "type": "function"
    },
    {
      "inputs": [],
      "name": "numTokensSellToAddToETH",
      "outputs": [
        {
          "internalType": "uint256",
          "name": "",
          "type": "uint256"
        }
      ],
      "stateMutability": "view",
      "type": "function"
    },
    {
      "inputs": [],
      "name": "numTokensSellToAddToLiquidity",
      "outputs": [
        {
          "internalType": "uint256",
          "name": "",
          "type": "uint256"
        }
      ],
      "stateMutability": "view",
      "type": "function"
    },
    {
      "inputs": [],
      "name": "owner",
      "outputs": [
        {
          "internalType": "address",
          "name": "",
          "type": "address"
        }
      ],
      "stateMutability": "view",
      "type": "function"
    },
    {
      "inputs": [],
      "name": "postLaunch",
      "outputs": [],
      "stateMutability": "nonpayable",
      "type": "function"
    },
    {
      "inputs": [],
      "name": "renounceOwnership",
      "outputs": [],
      "stateMutability": "nonpayable",
      "type": "function"
    },
    {
      "inputs": [
        {
          "internalType": "bool",
          "name": "_isEth",
          "type": "bool"
        },
        {
          "internalType": "bool",
          "name": "_isChannel",
          "type": "bool"
        },
        {
          "internalType": "uint256",
          "name": "_cost",
          "type": "uint256"
        }
      ],
      "name": "setCost",
      "outputs": [],
      "stateMutability": "nonpayable",
      "type": "function"
    },
    {
      "inputs": [
        {
          "internalType": "string",
          "name": "tg_user_chan",
          "type": "string"
        },
        {
          "internalType": "bool",
          "name": "_isChannel",
          "type": "bool"
        },
        {
          "internalType": "bool",
          "name": "_isUnlocked",
          "type": "bool"
        },
        {
          "internalType": "uint256",
          "name": "_unlockBlock",
          "type": "uint256"
        },
        {
          "internalType": "uint256",
          "name": "_amtPaid",
          "type": "uint256"
        }
      ],
      "name": "setUnlockStatus",
      "outputs": [],
      "stateMutability": "nonpayable",
      "type": "function"
    },
    {
      "inputs": [],
      "name": "symbol",
      "outputs": [
        {
          "internalType": "string",
          "name": "",
          "type": "string"
        }
      ],
      "stateMutability": "view",
      "type": "function"
    },
    {
      "inputs": [],
      "name": "taxForLiquidity",
      "outputs": [
        {
          "internalType": "uint256",
          "name": "",
          "type": "uint256"
        }
      ],
      "stateMutability": "view",
      "type": "function"
    },
    {
      "inputs": [],
      "name": "taxForMarketing",
      "outputs": [
        {
          "internalType": "uint256",
          "name": "",
          "type": "uint256"
        }
      ],
      "stateMutability": "view",
      "type": "function"
    },
    {
      "inputs": [],
      "name": "totalSupply",
      "outputs": [
        {
          "internalType": "uint256",
          "name": "",
          "type": "uint256"
        }
      ],
      "stateMutability": "view",
      "type": "function"
    },
    {
      "inputs": [
        {
          "internalType": "address",
          "name": "to",
          "type": "address"
        },
        {
          "internalType": "uint256",
          "name": "amount",
          "type": "uint256"
        }
      ],
      "name": "transfer",
      "outputs": [
        {
          "internalType": "bool",
          "name": "",
          "type": "bool"
        }
      ],
      "stateMutability": "nonpayable",
      "type": "function"
    },
    {
      "inputs": [
        {
          "internalType": "address",
          "name": "from",
          "type": "address"
        },
        {
          "internalType": "address",
          "name": "to",
          "type": "address"
        },
        {
          "internalType": "uint256",
          "name": "amount",
          "type": "uint256"
        }
      ],
      "name": "transferFrom",
      "outputs": [
        {
          "internalType": "bool",
          "name": "",
          "type": "bool"
        }
      ],
      "stateMutability": "nonpayable",
      "type": "function"
    },
    {
      "inputs": [
        {
          "internalType": "address",
          "name": "newOwner",
          "type": "address"
        }
      ],
      "name": "transferOwnership",
      "outputs": [],
      "stateMutability": "nonpayable",
      "type": "function"
    },
    {
      "inputs": [],
      "name": "uniswapV2Pair",
      "outputs": [
        {
          "internalType": "address",
          "name": "",
          "type": "address"
        }
      ],
      "stateMutability": "view",
      "type": "function"
    },
    {
      "inputs": [],
      "name": "uniswapV2Router",
      "outputs": [
        {
          "internalType": "contract IUniswapV2Router02",
          "name": "",
          "type": "address"
        }
      ],
      "stateMutability": "view",
      "type": "function"
    },
    {
      "inputs": [
        {
          "internalType": "string",
          "name": "tg_channel",
          "type": "string"
        }
      ],
      "name": "unlockChannel",
      "outputs": [],
      "stateMutability": "payable",
      "type": "function"
    },
    {
      "inputs": [
        {
          "internalType": "string",
          "name": "tg_username",
          "type": "string"
        }
      ],
      "name": "unlockUser",
      "outputs": [],
      "stateMutability": "payable",
      "type": "function"
    },
    {
      "inputs": [
        {
          "internalType": "string",
          "name": "",
          "type": "string"
        }
      ],
      "name": "unlockedChannels",
      "outputs": [
        {
          "internalType": "string",
          "name": "tgChannel",
          "type": "string"
        },
        {
          "internalType": "bool",
          "name": "unlocked",
          "type": "bool"
        },
        {
          "internalType": "uint256",
          "name": "unlockedAt",
          "type": "uint256"
        },
        {
          "internalType": "uint256",
          "name": "totalEthPaid",
          "type": "uint256"
        }
      ],
      "stateMutability": "view",
      "type": "function"
    },
    {
      "inputs": [
        {
          "internalType": "string",
          "name": "",
          "type": "string"
        }
      ],
      "name": "unlockedUsers",
      "outputs": [
        {
          "internalType": "string",
          "name": "tgUserName",
          "type": "string"
        },
        {
          "internalType": "bool",
          "name": "unlocked",
          "type": "bool"
        },
        {
          "internalType": "uint256",
          "name": "unlockedAt",
          "type": "uint256"
        },
        {
          "internalType": "uint256",
          "name": "totalEthPaid",
          "type": "uint256"
        }
      ],
      "stateMutability": "view",
      "type": "function"
    },
    {
      "inputs": [
        {
          "internalType": "address",
          "name": "_pair",
          "type": "address"
        }
      ],
      "name": "updatePair",
      "outputs": [],
      "stateMutability": "nonpayable",
      "type": "function"
    },
    {
      "inputs": [],
      "name": "userCostEth",
      "outputs": [
        {
          "internalType": "uint256",
          "name": "",
          "type": "uint256"
        }
      ],
      "stateMutability": "view",
      "type": "function"
    },
    {
      "inputs": [],
      "name": "userCostTokens",
      "outputs": [
        {
          "internalType": "uint256",
          "name": "",
          "type": "uint256"
        }
      ],
      "stateMutability": "view",
      "type": "function"
    },
    {
      "stateMutability": "payable",
      "type": "receive"
    }
  ],
  "bytecode": "0x60a06040526040518060400160405280600781526020017f53686974204149000000000000000000000000000000000000000000000000008152506006908051906020019062000051929190620009d6565b506040518060400160405280600681526020017f5368697441490000000000000000000000000000000000000000000000000000815250600790805190602001906200009f929190620009d6565b506009600860006101000a81548160ff021916908360ff160217905550633b9aca00600955602f600a55602f600b55600860009054906101000a900460ff16600a620000ec919062000c20565b62989681620000fc919062000c71565b600c55600860009054906101000a900460ff16600a6200011d919062000c20565b629896816200012d919062000c71565b600d5573bed4e2d667b9e201505cd7822a4498d38ef956bc600e60006101000a81548173ffffffffffffffffffffffffffffffffffffffff021916908373ffffffffffffffffffffffffffffffffffffffff16021790555061dead600f60006101000a81548173ffffffffffffffffffffffffffffffffffffffff021916908373ffffffffffffffffffffffffffffffffffffffff1602179055506000601055600860009054906101000a900460ff16600a620001eb919062000c20565b62030d40620001fb919062000c71565b601255600860009054906101000a900460ff16600a6200021c919062000c20565b620186a06200022c919062000c71565b601355662386f26fc10000601655600860009054906101000a900460ff16600a62000258919062000c20565b61271062000267919062000c71565b60175567016345785d8a0000601855600860009054906101000a900460ff16600a62000294919062000c20565b620186a0620002a4919062000c71565b601955348015620002b457600080fd5b5060068054620002c49062000d01565b80601f0160208091040260200160405190810160405280929190818152602001828054620002f29062000d01565b8015620003435780601f10620003175761010080835404028352916020019162000343565b820191906000526020600020905b8154815290600101906020018083116200032557829003601f168201915b505050505060078054620003579062000d01565b80601f0160208091040260200160405190810160405280929190818152602001828054620003859062000d01565b8015620003d65780601f10620003aa57610100808354040283529160200191620003d6565b820191906000526020600020905b815481529060010190602001808311620003b857829003601f168201915b50505050508160039080519060200190620003f3929190620009d6565b5080600490805190602001906200040c929190620009d6565b5050506200042f62000423620007c260201b60201c565b620007ca60201b60201c565b6200046d33600860009054906101000a900460ff16600a62000452919062000c20565b60095462000461919062000c71565b6200089060201b60201c565b6000737a250d5630b4cf539739df2c5dacb4c659f2488d90508073ffffffffffffffffffffffffffffffffffffffff1663c45a01556040518163ffffffff1660e01b815260040160206040518083038186803b158015620004cd57600080fd5b505afa158015620004e2573d6000803e3d6000fd5b505050506040513d601f19601f8201168201806040525081019062000508919062000da1565b73ffffffffffffffffffffffffffffffffffffffff1663c9c65396308373ffffffffffffffffffffffffffffffffffffffff1663ad5c46486040518163ffffffff1660e01b815260040160206040518083038186803b1580156200056b57600080fd5b505afa15801562000580573d6000803e3d6000fd5b505050506040513d601f19601f82011682018060405250810190620005a6919062000da1565b6040518363ffffffff1660e01b8152600401620005c592919062000de4565b602060405180830381600087803b158015620005e057600080fd5b505af1158015620005f5573d6000803e3d6000fd5b505050506040513d601f19601f820116820180604052508101906200061b919062000da1565b601a60006101000a81548173ffffffffffffffffffffffffffffffffffffffff021916908373ffffffffffffffffffffffffffffffffffffffff1602179055508073ffffffffffffffffffffffffffffffffffffffff1660808173ffffffffffffffffffffffffffffffffffffffff168152505060016011600060805173ffffffffffffffffffffffffffffffffffffffff1673ffffffffffffffffffffffffffffffffffffffff16815260200190815260200160002060006101000a81548160ff0219169083151502179055506001601160003373ffffffffffffffffffffffffffffffffffffffff1673ffffffffffffffffffffffffffffffffffffffff16815260200190815260200160002060006101000a81548160ff021916908315150217905550600160116000600e60009054906101000a900473ffffffffffffffffffffffffffffffffffffffff1673ffffffffffffffffffffffffffffffffffffffff1673ffffffffffffffffffffffffffffffffffffffff16815260200190815260200160002060006101000a81548160ff0219169083151502179055505062000f1f565b600033905090565b6000600560009054906101000a900473ffffffffffffffffffffffffffffffffffffffff16905081600560006101000a81548173ffffffffffffffffffffffffffffffffffffffff021916908373ffffffffffffffffffffffffffffffffffffffff1602179055508173ffffffffffffffffffffffffffffffffffffffff168173ffffffffffffffffffffffffffffffffffffffff167f8be0079c531659141344cd1fd0a4f28419497f9722a3daafe3b4186f6b6457e060405160405180910390a35050565b600073ffffffffffffffffffffffffffffffffffffffff168273ffffffffffffffffffffffffffffffffffffffff16141562000903576040517f08c379a0000000000000000000000000000000000000000000000000000000008152600401620008fa9062000e72565b60405180910390fd5b806002600082825462000917919062000e94565b92505081905550806000808473ffffffffffffffffffffffffffffffffffffffff1673ffffffffffffffffffffffffffffffffffffffff168152602001908152602001600020600082825401925050819055508173ffffffffffffffffffffffffffffffffffffffff16600073ffffffffffffffffffffffffffffffffffffffff167fddf252ad1be2c89b69c2b068fc378daa952ba7f163c4a11628f55a4df523b3ef83604051620009ca919062000f02565b60405180910390a35050565b828054620009e49062000d01565b90600052602060002090601f01602090048101928262000a08576000855562000a54565b82601f1062000a2357805160ff191683800117855562000a54565b8280016001018555821562000a54579182015b8281111562000a5357825182559160200191906001019062000a36565b5b50905062000a63919062000a67565b5090565b5b8082111562000a8257600081600090555060010162000a68565b5090565b7f4e487b7100000000000000000000000000000000000000000000000000000000600052601160045260246000fd5b60008160011c9050919050565b6000808291508390505b600185111562000b145780860481111562000aec5762000aeb62000a86565b5b600185161562000afc5780820291505b808102905062000b0c8562000ab5565b945062000acc565b94509492505050565b60008262000b2f576001905062000c02565b8162000b3f576000905062000c02565b816001811462000b58576002811462000b635762000b99565b600191505062000c02565b60ff84111562000b785762000b7762000a86565b5b8360020a91508482111562000b925762000b9162000a86565b5b5062000c02565b5060208310610133831016604e8410600b841016171562000bd35782820a90508381111562000bcd5762000bcc62000a86565b5b62000c02565b62000be2848484600162000ac2565b9250905081840481111562000bfc5762000bfb62000a86565b5b81810290505b9392505050565b6000819050919050565b600060ff82169050919050565b600062000c2d8262000c09565b915062000c3a8362000c13565b925062000c697fffffffffffffffffffffffffffffffffffffffffffffffffffffffffffffffff848462000b1d565b905092915050565b600062000c7e8262000c09565b915062000c8b8362000c09565b9250817fffffffffffffffffffffffffffffffffffffffffffffffffffffffffffffffff048311821515161562000cc75762000cc662000a86565b5b828202905092915050565b7f4e487b7100000000000000000000000000000000000000000000000000000000600052602260045260246000fd5b6000600282049050600182168062000d1a57607f821691505b6020821081141562000d315762000d3062000cd2565b5b50919050565b600080fd5b600073ffffffffffffffffffffffffffffffffffffffff82169050919050565b600062000d698262000d3c565b9050919050565b62000d7b8162000d5c565b811462000d8757600080fd5b50565b60008151905062000d9b8162000d70565b92915050565b60006020828403121562000dba5762000db962000d37565b5b600062000dca8482850162000d8a565b91505092915050565b62000dde8162000d5c565b82525050565b600060408201905062000dfb600083018562000dd3565b62000e0a602083018462000dd3565b9392505050565b600082825260208201905092915050565b7f45524332303a206d696e7420746f20746865207a65726f206164647265737300600082015250565b600062000e5a601f8362000e11565b915062000e678262000e22565b602082019050919050565b6000602082019050818103600083015262000e8d8162000e4b565b9050919050565b600062000ea18262000c09565b915062000eae8362000c09565b9250827fffffffffffffffffffffffffffffffffffffffffffffffffffffffffffffffff0382111562000ee65762000ee562000a86565b5b828201905092915050565b62000efc8162000c09565b82525050565b600060208201905062000f19600083018462000ef1565b92915050565b6080516147c962000f5e60003960008181610e41015281816129b701528181612aa701528181612ace01528181612e020152612e2901526147c96000f3fe60806040526004361061028c5760003560e01c8063768dc7101161015a578063af8af690116100c1578063df1d099e1161007a578063df1d099e14610a67578063df8408fe14610a92578063f1b2b3d914610abb578063f2fde38b14610af8578063f345bd8514610b21578063fbee93ba14610b4c57610293565b8063af8af6901461091d578063b5c78e8a1461095a578063bb85c6d114610997578063c0fdea57146109d4578063d12a7688146109ff578063dd62ed3e14610a2a57610293565b8063a2330d9711610113578063a2330d97146107f6578063a3996f7b14610836578063a457c2d71461084d578063a9059cbb1461088a578063aa4bde28146108c7578063ad16a0cf146108f257610293565b8063768dc710146106d05780637930ef691461070d57806381bfdcca146107385780638c0b5e22146107755780638da5cb5b146107a057806395d89b41146107cb57610293565b806330b63d80116101fe57806363cdf60f116101b757806363cdf60f146105ab578063677daa57146105eb57806370a0823114610628578063715018a61461066557806373c503b31461067c57806375f0a874146106a557610293565b806330b63d8014610473578063313ce567146104b057806339509351146104db57806349bd5a5e146105185780634fa74c4d14610543578063527ffabd1461058057610293565b80631694505e116102505780631694505e1461037257806316a7b1601461039d57806318160ddd146103b957806318bc47f6146103e45780631b56bbf91461040d57806323b872dd1461043657610293565b806303fd2a4514610298578063054dee0f146102c357806306fdde03146102ee578063095ea7b3146103195780630f1d7ad91461035657610293565b3661029357005b600080fd5b3480156102a457600080fd5b506102ad610b77565b6040516102ba9190613006565b60405180910390f35b3480156102cf57600080fd5b506102d8610b9d565b6040516102e5919061303a565b60405180910390f35b3480156102fa57600080fd5b50610303610ba3565b60405161031091906130ee565b60405180910390f35b34801561032557600080fd5b50610340600480360381019061033b919061317c565b610c35565b60405161034d91906131d7565b60405180910390f35b610370600480360381019061036b9190613327565b610c58565b005b34801561037e57600080fd5b50610387610e3f565b60405161039491906133cf565b60405180910390f35b6103b760048036038101906103b29190613327565b610e63565b005b3480156103c557600080fd5b506103ce61104a565b6040516103db919061303a565b60405180910390f35b3480156103f057600080fd5b5061040b60048036038101906104069190613416565b611054565b005b34801561041957600080fd5b50610434600480360381019061042f91906134ad565b6111d8565b005b34801561044257600080fd5b5061045d600480360381019061045891906134da565b61135c565b60405161046a91906131d7565b60405180910390f35b34801561047f57600080fd5b5061049a6004803603810190610495919061352d565b61138b565b6040516104a791906131d7565b60405180910390f35b3480156104bc57600080fd5b506104c5611499565b6040516104d29190613589565b60405180910390f35b3480156104e757600080fd5b5061050260048036038101906104fd919061317c565b6114a2565b60405161050f91906131d7565b60405180910390f35b34801561052457600080fd5b5061052d6114d9565b60405161053a9190613006565b60405180910390f35b34801561054f57600080fd5b5061056a600480360381019061056591906135a4565b6114ff565b60405161057791906131d7565b60405180910390f35b34801561058c57600080fd5b50610595611575565b6040516105a2919061303a565b60405180910390f35b3480156105b757600080fd5b506105d260048036038101906105cd9190613327565b61157b565b6040516105e29493929190613600565b60405180910390f35b3480156105f757600080fd5b50610612600480360381019061060d919061364c565b611656565b60405161061f91906131d7565b60405180910390f35b34801561063457600080fd5b5061064f600480360381019061064a91906134ad565b611670565b60405161065c919061303a565b60405180910390f35b34801561067157600080fd5b5061067a6116b8565b005b34801561068857600080fd5b506106a3600480360381019061069e9190613679565b6116cc565b005b3480156106b157600080fd5b506106ba6117a0565b6040516106c79190613006565b60405180910390f35b3480156106dc57600080fd5b506106f760048036038101906106f291906134ad565b6117c6565b60405161070491906131d7565b60405180910390f35b34801561071957600080fd5b506107226117e6565b60405161072f919061303a565b60405180910390f35b34801561074457600080fd5b5061075f600480360381019061075a919061364c565b6117ec565b60405161076c91906131d7565b60405180910390f35b34801561078157600080fd5b5061078a611806565b604051610797919061303a565b60405180910390f35b3480156107ac57600080fd5b506107b561180c565b6040516107c29190613006565b60405180910390f35b3480156107d757600080fd5b506107e0611836565b6040516107ed91906130ee565b60405180910390f35b34801561080257600080fd5b5061081d60048036038101906108189190613327565b6118c8565b60405161082d9493929190613600565b60405180910390f35b34801561084257600080fd5b5061084b6119a3565b005b34801561085957600080fd5b50610874600480360381019061086f919061317c565b611a1d565b60405161088191906131d7565b60405180910390f35b34801561089657600080fd5b506108b160048036038101906108ac919061317c565b611a94565b6040516108be91906131d7565b60405180910390f35b3480156108d357600080fd5b506108dc611ab7565b6040516108e9919061303a565b60405180910390f35b3480156108fe57600080fd5b50610907611abd565b604051610914919061303a565b60405180910390f35b34801561092957600080fd5b50610944600480360381019061093f919061352d565b611ac3565b60405161095191906131d7565b60405180910390f35b34801561096657600080fd5b50610981600480360381019061097c91906135a4565b611b34565b60405161098e919061303a565b60405180910390f35b3480156109a357600080fd5b506109be60048036038101906109b991906134ad565b611b90565b6040516109cb91906131d7565b60405180910390f35b3480156109e057600080fd5b506109e9611ce5565b6040516109f6919061303a565b60405180910390f35b348015610a0b57600080fd5b50610a14611ceb565b604051610a21919061303a565b60405180910390f35b348015610a3657600080fd5b50610a516004803603810190610a4c91906136cc565b611cf1565b604051610a5e919061303a565b60405180910390f35b348015610a7357600080fd5b50610a7c611d78565b604051610a89919061303a565b60405180910390f35b348015610a9e57600080fd5b50610ab96004803603810190610ab4919061370c565b611d7e565b005b348015610ac757600080fd5b50610ae26004803603810190610add91906135a4565b611e1a565b604051610aef919061303a565b60405180910390f35b348015610b0457600080fd5b50610b1f6004803603810190610b1a91906134ad565b611e76565b005b348015610b2d57600080fd5b50610b36611efa565b604051610b43919061303a565b60405180910390f35b348015610b5857600080fd5b50610b61611f00565b604051610b6e919061303a565b60405180910390f35b600f60009054906101000a900473ffffffffffffffffffffffffffffffffffffffff1681565b60165481565b606060038054610bb29061377b565b80601f0160208091040260200160405190810160405280929190818152602001828054610bde9061377b565b8015610c2b5780601f10610c0057610100808354040283529160200191610c2b565b820191906000526020600020905b815481529060010190602001808311610c0e57829003601f168201915b5050505050905090565b600080610c40611f06565b9050610c4d818585611f0e565b600191505092915050565b601654341015610c9d576040517f08c379a0000000000000000000000000000000000000000000000000000000008152600401610c94906137f9565b60405180910390fd5b6017543373ffffffffffffffffffffffffffffffffffffffff16311015610cf9576040517f08c379a0000000000000000000000000000000000000000000000000000000008152600401610cf090613865565b60405180910390fd5b3460106000828254610d0b91906138b4565b92505081905550610d4133600f60009054906101000a900473ffffffffffffffffffffffffffffffffffffffff166017546120d9565b604051806080016040528082815260200160011515815260200142815260200134601584604051610d729190613946565b908152602001604051809103902060030154610d8e91906138b4565b815250601582604051610da19190613946565b90815260200160405180910390206000820151816000019080519060200190610dcb929190612f22565b5060208201518160010160006101000a81548160ff02191690831515021790555060408201518160020155606082015181600301559050507f8382dfeb92e23123a91d983e4f179a9fbe329ff91e14e11cd3c3b5252f1151228142604051610e3492919061395d565b60405180910390a150565b7f000000000000000000000000000000000000000000000000000000000000000081565b601654341015610ea8576040517f08c379a0000000000000000000000000000000000000000000000000000000008152600401610e9f906137f9565b60405180910390fd5b6017543373ffffffffffffffffffffffffffffffffffffffff16311015610f04576040517f08c379a0000000000000000000000000000000000000000000000000000000008152600401610efb90613865565b60405180910390fd5b3460106000828254610f1691906138b4565b92505081905550610f4c33600f60009054906101000a900473ffffffffffffffffffffffffffffffffffffffff166017546120d9565b604051806080016040528082815260200160011515815260200142815260200134601484604051610f7d9190613946565b908152602001604051809103902060030154610f9991906138b4565b815250601482604051610fac9190613946565b90815260200160405180910390206000820151816000019080519060200190610fd6929190612f22565b5060208201518160010160006101000a81548160ff02191690831515021790555060408201518160020155606082015181600301559050507f892c7b6af36dc1cd7c78d56ead1e536ddf81fe5688e6b3f631cdfadf7ad4c508814260405161103f92919061395d565b60405180910390a150565b6000600254905090565b61105c61266c565b83156110fc5760405180608001604052808681526020018415158152602001838152602001828152506015866040516110959190613946565b908152602001604051809103902060008201518160000190805190602001906110bf929190612f22565b5060208201518160010160006101000a81548160ff0219169083151502179055506040820151816002015560608201518160030155905050611192565b604051806080016040528086815260200184151581526020018381526020018281525060148660405161112f9190613946565b90815260200160405180910390206000820151816000019080519060200190611159929190612f22565b5060208201518160010160006101000a81548160ff02191690831515021790555060408201518160020155606082015181600301559050505b7fc7da2a9b77928245e263afcf4e639fd44ae7d1970e45b7c6ff1a952442938caf85858585856040516111c995949392919061398d565b60405180910390a15050505050565b6111e061266c565b600f60009054906101000a900473ffffffffffffffffffffffffffffffffffffffff1673ffffffffffffffffffffffffffffffffffffffff168173ffffffffffffffffffffffffffffffffffffffff161415611271576040517f08c379a000000000000000000000000000000000000000000000000000000000815260040161126890613a59565b60405180910390fd5b600073ffffffffffffffffffffffffffffffffffffffff168173ffffffffffffffffffffffffffffffffffffffff1614156112e1576040517f08c379a00000000000000000000000000000000000000000000000000000000081526004016112d890613a59565b60405180910390fd5b80601a60006101000a81548173ffffffffffffffffffffffffffffffffffffffff021916908373ffffffffffffffffffffffffffffffffffffffff1602179055507f1d288f7aba265e8b154b112bbb631ceca5df5fe93a750b2fe042fd1cc826647f816040516113519190613006565b60405180910390a150565b600080611367611f06565b90506113748582856126ea565b61137f8585856120d9565b60019150509392505050565b600061139561266c565b60626009546113a49190613aa8565b83106113e5576040517f08c379a00000000000000000000000000000000000000000000000000000000081526004016113dc90613b4b565b60405180910390fd5b60626009546113f49190613aa8565b8210611435576040517f08c379a000000000000000000000000000000000000000000000000000000000815260040161142c90613b4b565b60405180910390fd5b600860009054906101000a900460ff16600a6114519190613c9e565b8361145c9190613ce9565b601281905550600860009054906101000a900460ff16600a61147e9190613c9e565b826114899190613ce9565b6013819055506001905092915050565b60006009905090565b6000806114ad611f06565b90506114ce8185856114bf8589611cf1565b6114c991906138b4565b611f0e565b600191505092915050565b601a60009054906101000a900473ffffffffffffffffffffffffffffffffffffffff1681565b6000811561153d576015836040516115179190613946565b908152602001604051809103902060010160009054906101000a900460ff16905061156f565b60148360405161154d9190613946565b908152602001604051809103902060010160009054906101000a900460ff1690505b92915050565b600b5481565b6014818051602081018201805184825260208301602085012081835280955050505050506000915090508060000180546115b49061377b565b80601f01602080910402602001604051908101604052809291908181526020018280546115e09061377b565b801561162d5780601f106116025761010080835404028352916020019161162d565b820191906000526020600020905b81548152906001019060200180831161161057829003601f168201915b5050505050908060010160009054906101000a900460ff16908060020154908060030154905084565b600061166061266c565b81600c8190555060019050919050565b60008060008373ffffffffffffffffffffffffffffffffffffffff1673ffffffffffffffffffffffffffffffffffffffff168152602001908152602001600020549050919050565b6116c061266c565b6116ca6000612776565b565b6116d461266c565b82156116f95781156116ec57806018819055506116f4565b806016819055505b611760565b811561173157600860009054906101000a900460ff16600a61171b9190613c9e565b816117269190613ce9565b60198190555061175f565b600860009054906101000a900460ff16600a61174d9190613c9e565b816117589190613ce9565b6017819055505b5b7fb87a29e1f0734b57d95308af5a136440c194441ac49edd417a1ed26aa78ceda283838360405161179393929190613d43565b60405180910390a1505050565b600e60009054906101000a900473ffffffffffffffffffffffffffffffffffffffff1681565b60116020528060005260406000206000915054906101000a900460ff1681565b60185481565b60006117f661266c565b81600d8190555060019050919050565b600c5481565b6000600560009054906101000a900473ffffffffffffffffffffffffffffffffffffffff16905090565b6060600480546118459061377b565b80601f01602080910402602001604051908101604052809291908181526020018280546118719061377b565b80156118be5780601f10611893576101008083540402835291602001916118be565b820191906000526020600020905b8154815290600101906020018083116118a157829003601f168201915b5050505050905090565b6015818051602081018201805184825260208301602085012081835280955050505050506000915090508060000180546119019061377b565b80601f016020809104026020016040519081016040528092919081815260200182805461192d9061377b565b801561197a5780601f1061194f5761010080835404028352916020019161197a565b820191906000526020600020905b81548152906001019060200180831161195d57829003601f168201915b5050505050908060010160009054906101000a900460ff16908060020154908060030154905084565b6119ab61266c565b6001600a819055506002600b81905550600860009054906101000a900460ff16600a6119d79190613c9e565b629896816119e59190613ce9565b600c81905550600860009054906101000a900460ff16600a611a079190613c9e565b62989681611a159190613ce9565b600d81905550565b600080611a28611f06565b90506000611a368286611cf1565b905083811015611a7b576040517f08c379a0000000000000000000000000000000000000000000000000000000008152600401611a7290613dec565b60405180910390fd5b611a888286868403611f0e565b60019250505092915050565b600080611a9f611f06565b9050611aac8185856120d9565b600191505092915050565b600d5481565b60135481565b6000611acd61266c565b600a8284611adb91906138b4565b1115611b1c576040517f08c379a0000000000000000000000000000000000000000000000000000000008152600401611b1390613e7e565b60405180910390fd5b82600a8190555081600b819055506001905092915050565b60008115611b6557601583604051611b4c9190613946565b9081526020016040518091039020600301549050611b8a565b601483604051611b759190613946565b90815260200160405180910390206003015490505b92915050565b6000611b9a61266c565b600f60009054906101000a900473ffffffffffffffffffffffffffffffffffffffff1673ffffffffffffffffffffffffffffffffffffffff168273ffffffffffffffffffffffffffffffffffffffff161415611c2b576040517f08c379a0000000000000000000000000000000000000000000000000000000008152600401611c2290613a59565b60405180910390fd5b600073ffffffffffffffffffffffffffffffffffffffff168273ffffffffffffffffffffffffffffffffffffffff161415611c9b576040517f08c379a0000000000000000000000000000000000000000000000000000000008152600401611c9290613a59565b60405180910390fd5b81600e60006101000a81548173ffffffffffffffffffffffffffffffffffffffff021916908373ffffffffffffffffffffffffffffffffffffffff16021790555060019050919050565b60105481565b60125481565b6000600160008473ffffffffffffffffffffffffffffffffffffffff1673ffffffffffffffffffffffffffffffffffffffff16815260200190815260200160002060008373ffffffffffffffffffffffffffffffffffffffff1673ffffffffffffffffffffffffffffffffffffffff16815260200190815260200160002054905092915050565b60195481565b611d8661266c565b80601160008473ffffffffffffffffffffffffffffffffffffffff1673ffffffffffffffffffffffffffffffffffffffff16815260200190815260200160002060006101000a81548160ff0219169083151502179055507f318c131114339c004fff0a22fcdbbc0566bb2a7cd3aa1660e636ec5a66784ff28282604051611e0e929190613e9e565b60405180910390a15050565b60008115611e4b57601583604051611e329190613946565b9081526020016040518091039020600201549050611e70565b601483604051611e5b9190613946565b90815260200160405180910390206002015490505b92915050565b611e7e61266c565b600073ffffffffffffffffffffffffffffffffffffffff168173ffffffffffffffffffffffffffffffffffffffff161415611eee576040517f08c379a0000000000000000000000000000000000000000000000000000000008152600401611ee590613f39565b60405180910390fd5b611ef781612776565b50565b600a5481565b60175481565b600033905090565b600073ffffffffffffffffffffffffffffffffffffffff168373ffffffffffffffffffffffffffffffffffffffff161415611f7e576040517f08c379a0000000000000000000000000000000000000000000000000000000008152600401611f7590613fcb565b60405180910390fd5b600073ffffffffffffffffffffffffffffffffffffffff168273ffffffffffffffffffffffffffffffffffffffff161415611fee576040517f08c379a0000000000000000000000000000000000000000000000000000000008152600401611fe59061405d565b60405180910390fd5b80600160008573ffffffffffffffffffffffffffffffffffffffff1673ffffffffffffffffffffffffffffffffffffffff16815260200190815260200160002060008473ffffffffffffffffffffffffffffffffffffffff1673ffffffffffffffffffffffffffffffffffffffff168152602001908152602001600020819055508173ffffffffffffffffffffffffffffffffffffffff168373ffffffffffffffffffffffffffffffffffffffff167f8c5be1e5ebec7d5bd14f71427d1e84f3dd0314c0f7b2291e5b200ac8c7c3b925836040516120cc919061303a565b60405180910390a3505050565b600073ffffffffffffffffffffffffffffffffffffffff168373ffffffffffffffffffffffffffffffffffffffff161415612149576040517f08c379a0000000000000000000000000000000000000000000000000000000008152600401612140906140ef565b60405180910390fd5b600073ffffffffffffffffffffffffffffffffffffffff168273ffffffffffffffffffffffffffffffffffffffff1614156121b9576040517f08c379a00000000000000000000000000000000000000000000000000000000081526004016121b090614181565b60405180910390fd5b806121c384611670565b1015612204576040517f08c379a00000000000000000000000000000000000000000000000000000000081526004016121fb90614213565b60405180910390fd5b601a60009054906101000a900473ffffffffffffffffffffffffffffffffffffffff1673ffffffffffffffffffffffffffffffffffffffff168373ffffffffffffffffffffffffffffffffffffffff1614806122ad5750601a60009054906101000a900473ffffffffffffffffffffffffffffffffffffffff1673ffffffffffffffffffffffffffffffffffffffff168273ffffffffffffffffffffffffffffffffffffffff16145b80156122c65750601a60149054906101000a900460ff16155b1561265b57601a60009054906101000a900473ffffffffffffffffffffffffffffffffffffffff1673ffffffffffffffffffffffffffffffffffffffff168373ffffffffffffffffffffffffffffffffffffffff161461241f57600060105461232e30611670565b6123389190614233565b9050601254811061234f5761234e60125461283c565b5b6013546010541061241d576123656013546128fd565b601354601060008282546123799190614233565b925050819055506000600e60009054906101000a900473ffffffffffffffffffffffffffffffffffffffff1673ffffffffffffffffffffffffffffffffffffffff166108fc479081150290604051600060405180830381858888f1935050505090508061241b576040517f08c379a0000000000000000000000000000000000000000000000000000000008152600401612412906142b3565b60405180910390fd5b505b505b6000601160008573ffffffffffffffffffffffffffffffffffffffff1673ffffffffffffffffffffffffffffffffffffffff16815260200190815260200160002060009054906101000a900460ff16806124c25750601160008473ffffffffffffffffffffffffffffffffffffffff1673ffffffffffffffffffffffffffffffffffffffff16815260200190815260200160002060009054906101000a900460ff165b156124cf5781905061264a565b600c54821115612514576040517f08c379a000000000000000000000000000000000000000000000000000000000815260040161250b90614345565b60405180910390fd5b601a60009054906101000a900473ffffffffffffffffffffffffffffffffffffffff1673ffffffffffffffffffffffffffffffffffffffff168473ffffffffffffffffffffffffffffffffffffffff1614156125c357600d5461257684611670565b8361258191906138b4565b11156125c2576040517f08c379a00000000000000000000000000000000000000000000000000000000081526004016125b9906143d7565b60405180910390fd5b5b60006064600b54846125d59190613ce9565b6125df9190613aa8565b905060006064600a54856125f39190613ce9565b6125fd9190613aa8565b9050808261260b91906138b4565b846126169190614233565b9250816010600082825461262a91906138b4565b925050819055506126478630838561264291906138b4565b612b7f565b50505b612655848483612b7f565b50612667565b612666838383612b7f565b5b505050565b612674611f06565b73ffffffffffffffffffffffffffffffffffffffff1661269261180c565b73ffffffffffffffffffffffffffffffffffffffff16146126e8576040517f08c379a00000000000000000000000000000000000000000000000000000000081526004016126df90614443565b60405180910390fd5b565b60006126f68484611cf1565b90507fffffffffffffffffffffffffffffffffffffffffffffffffffffffffffffffff81146127705781811015612762576040517f08c379a0000000000000000000000000000000000000000000000000000000008152600401612759906144af565b60405180910390fd5b61276f8484848403611f0e565b5b50505050565b6000600560009054906101000a900473ffffffffffffffffffffffffffffffffffffffff16905081600560006101000a81548173ffffffffffffffffffffffffffffffffffffffff021916908373ffffffffffffffffffffffffffffffffffffffff1602179055508173ffffffffffffffffffffffffffffffffffffffff168173ffffffffffffffffffffffffffffffffffffffff167f8be0079c531659141344cd1fd0a4f28419497f9722a3daafe3b4186f6b6457e060405160405180910390a35050565b6001601a60146101000a81548160ff02191690831515021790555060006002826128669190613aa8565b9050600081836128769190614233565b90506000479050612886836128fd565b600081476128949190614233565b90506128a08382612de1565b7f17bbfb9a6069321b6ded73bd96327c9e6b7212a5cd51ff219cd61370acafb5618482856040516128d3939291906144cf565b60405180910390a1505050506000601a60146101000a81548160ff02191690831515021790555050565b6001601a60146101000a81548160ff0219169083151502179055506000600267ffffffffffffffff811115612935576129346131fc565b5b6040519080825280602002602001820160405280156129635781602001602082028036833780820191505090505b509050308160008151811061297b5761297a614506565b5b602002602001019073ffffffffffffffffffffffffffffffffffffffff16908173ffffffffffffffffffffffffffffffffffffffff16815250507f000000000000000000000000000000000000000000000000000000000000000073ffffffffffffffffffffffffffffffffffffffff1663ad5c46486040518163ffffffff1660e01b815260040160206040518083038186803b158015612a1b57600080fd5b505afa158015612a2f573d6000803e3d6000fd5b505050506040513d601f19601f82011682018060405250810190612a53919061454a565b81600181518110612a6757612a66614506565b5b602002602001019073ffffffffffffffffffffffffffffffffffffffff16908173ffffffffffffffffffffffffffffffffffffffff1681525050612acc307f000000000000000000000000000000000000000000000000000000000000000084611f0e565b7f000000000000000000000000000000000000000000000000000000000000000073ffffffffffffffffffffffffffffffffffffffff1663791ac9478360008430426040518663ffffffff1660e01b8152600401612b2e959493929190614670565b600060405180830381600087803b158015612b4857600080fd5b505af1158015612b5c573d6000803e3d6000fd5b50505050506000601a60146101000a81548160ff02191690831515021790555050565b600073ffffffffffffffffffffffffffffffffffffffff168373ffffffffffffffffffffffffffffffffffffffff161415612bef576040517f08c379a0000000000000000000000000000000000000000000000000000000008152600401612be6906140ef565b60405180910390fd5b600073ffffffffffffffffffffffffffffffffffffffff168273ffffffffffffffffffffffffffffffffffffffff161415612c5f576040517f08c379a0000000000000000000000000000000000000000000000000000000008152600401612c5690614181565b60405180910390fd5b60008060008573ffffffffffffffffffffffffffffffffffffffff1673ffffffffffffffffffffffffffffffffffffffff16815260200190815260200160002054905081811015612ce5576040517f08c379a0000000000000000000000000000000000000000000000000000000008152600401612cdc90614213565b60405180910390fd5b8181036000808673ffffffffffffffffffffffffffffffffffffffff1673ffffffffffffffffffffffffffffffffffffffff16815260200190815260200160002081905550816000808573ffffffffffffffffffffffffffffffffffffffff1673ffffffffffffffffffffffffffffffffffffffff168152602001908152602001600020600082825401925050819055508273ffffffffffffffffffffffffffffffffffffffff168473ffffffffffffffffffffffffffffffffffffffff167fddf252ad1be2c89b69c2b068fc378daa952ba7f163c4a11628f55a4df523b3ef84604051612dd3919061303a565b60405180910390a350505050565b6001601a60146101000a81548160ff021916908315150217905550612e27307f000000000000000000000000000000000000000000000000000000000000000084611f0e565b7f000000000000000000000000000000000000000000000000000000000000000073ffffffffffffffffffffffffffffffffffffffff1663f305d719823085600080600e60009054906101000a900473ffffffffffffffffffffffffffffffffffffffff16426040518863ffffffff1660e01b8152600401612eae969594939291906146ca565b6060604051808303818588803b158015612ec757600080fd5b505af1158015612edb573d6000803e3d6000fd5b50505050506040513d601f19601f82011682018060405250810190612f009190614740565b5050506000601a60146101000a81548160ff0219169083151502179055505050565b828054612f2e9061377b565b90600052602060002090601f016020900481019282612f505760008555612f97565b82601f10612f6957805160ff1916838001178555612f97565b82800160010185558215612f97579182015b82811115612f96578251825591602001919060010190612f7b565b5b509050612fa49190612fa8565b5090565b5b80821115612fc1576000816000905550600101612fa9565b5090565b600073ffffffffffffffffffffffffffffffffffffffff82169050919050565b6000612ff082612fc5565b9050919050565b61300081612fe5565b82525050565b600060208201905061301b6000830184612ff7565b92915050565b6000819050919050565b61303481613021565b82525050565b600060208201905061304f600083018461302b565b92915050565b600081519050919050565b600082825260208201905092915050565b60005b8381101561308f578082015181840152602081019050613074565b8381111561309e576000848401525b50505050565b6000601f19601f8301169050919050565b60006130c082613055565b6130ca8185613060565b93506130da818560208601613071565b6130e3816130a4565b840191505092915050565b6000602082019050818103600083015261310881846130b5565b905092915050565b6000604051905090565b600080fd5b600080fd5b61312d81612fe5565b811461313857600080fd5b50565b60008135905061314a81613124565b92915050565b61315981613021565b811461316457600080fd5b50565b60008135905061317681613150565b92915050565b600080604083850312156131935761319261311a565b5b60006131a18582860161313b565b92505060206131b285828601613167565b9150509250929050565b60008115159050919050565b6131d1816131bc565b82525050565b60006020820190506131ec60008301846131c8565b92915050565b600080fd5b600080fd5b7f4e487b7100000000000000000000000000000000000000000000000000000000600052604160045260246000fd5b613234826130a4565b810181811067ffffffffffffffff82111715613253576132526131fc565b5b80604052505050565b6000613266613110565b9050613272828261322b565b919050565b600067ffffffffffffffff821115613292576132916131fc565b5b61329b826130a4565b9050602081019050919050565b82818337600083830152505050565b60006132ca6132c584613277565b61325c565b9050828152602081018484840111156132e6576132e56131f7565b5b6132f18482856132a8565b509392505050565b600082601f83011261330e5761330d6131f2565b5b813561331e8482602086016132b7565b91505092915050565b60006020828403121561333d5761333c61311a565b5b600082013567ffffffffffffffff81111561335b5761335a61311f565b5b613367848285016132f9565b91505092915050565b6000819050919050565b600061339561339061338b84612fc5565b613370565b612fc5565b9050919050565b60006133a78261337a565b9050919050565b60006133b98261339c565b9050919050565b6133c9816133ae565b82525050565b60006020820190506133e460008301846133c0565b92915050565b6133f3816131bc565b81146133fe57600080fd5b50565b600081359050613410816133ea565b92915050565b600080600080600060a086880312156134325761343161311a565b5b600086013567ffffffffffffffff8111156134505761344f61311f565b5b61345c888289016132f9565b955050602061346d88828901613401565b945050604061347e88828901613401565b935050606061348f88828901613167565b92505060806134a088828901613167565b9150509295509295909350565b6000602082840312156134c3576134c261311a565b5b60006134d18482850161313b565b91505092915050565b6000806000606084860312156134f3576134f261311a565b5b60006135018682870161313b565b93505060206135128682870161313b565b925050604061352386828701613167565b9150509250925092565b600080604083850312156135445761354361311a565b5b600061355285828601613167565b925050602061356385828601613167565b9150509250929050565b600060ff82169050919050565b6135838161356d565b82525050565b600060208201905061359e600083018461357a565b92915050565b600080604083850312156135bb576135ba61311a565b5b600083013567ffffffffffffffff8111156135d9576135d861311f565b5b6135e5858286016132f9565b92505060206135f685828601613401565b9150509250929050565b6000608082019050818103600083015261361a81876130b5565b905061362960208301866131c8565b613636604083018561302b565b613643606083018461302b565b95945050505050565b6000602082840312156136625761366161311a565b5b600061367084828501613167565b91505092915050565b6000806000606084860312156136925761369161311a565b5b60006136a086828701613401565b93505060206136b186828701613401565b92505060406136c286828701613167565b9150509250925092565b600080604083850312156136e3576136e261311a565b5b60006136f18582860161313b565b92505060206137028582860161313b565b9150509250929050565b600080604083850312156137235761372261311a565b5b60006137318582860161313b565b925050602061374285828601613401565b9150509250929050565b7f4e487b7100000000000000000000000000000000000000000000000000000000600052602260045260246000fd5b6000600282049050600182168061379357607f821691505b602082108114156137a7576137a661374c565b5b50919050565b7f4e6f7420656e6f756768204554482073656e7421000000000000000000000000600082015250565b60006137e3601483613060565b91506137ee826137ad565b602082019050919050565b60006020820190508181036000830152613812816137d6565b9050919050565b7f4e6f7420656e6f75676820746f6b656e73210000000000000000000000000000600082015250565b600061384f601283613060565b915061385a82613819565b602082019050919050565b6000602082019050818103600083015261387e81613842565b9050919050565b7f4e487b7100000000000000000000000000000000000000000000000000000000600052601160045260246000fd5b60006138bf82613021565b91506138ca83613021565b9250827fffffffffffffffffffffffffffffffffffffffffffffffffffffffffffffffff038211156138ff576138fe613885565b5b828201905092915050565b600081905092915050565b600061392082613055565b61392a818561390a565b935061393a818560208601613071565b80840191505092915050565b60006139528284613915565b915081905092915050565b6000604082019050818103600083015261397781856130b5565b9050613986602083018461302b565b9392505050565b600060a08201905081810360008301526139a781886130b5565b90506139b660208301876131c8565b6139c360408301866131c8565b6139d0606083018561302b565b6139dd608083018461302b565b9695505050505050565b7f4c5020506169722063616e6e6f742062652074686520446561642077616c6c6560008201527f742c206f72203021000000000000000000000000000000000000000000000000602082015250565b6000613a43602883613060565b9150613a4e826139e7565b604082019050919050565b60006020820190508181036000830152613a7281613a36565b9050919050565b7f4e487b7100000000000000000000000000000000000000000000000000000000600052601260045260246000fd5b6000613ab382613021565b9150613abe83613021565b925082613ace57613acd613a79565b5b828204905092915050565b7f43616e6e6f74206c6971756964617465206d6f7265207468616e203225206f6660008201527f2074686520737570706c79206174206f6e636521000000000000000000000000602082015250565b6000613b35603483613060565b9150613b4082613ad9565b604082019050919050565b60006020820190508181036000830152613b6481613b28565b9050919050565b60008160011c9050919050565b6000808291508390505b6001851115613bc257808604811115613b9e57613b9d613885565b5b6001851615613bad5780820291505b8081029050613bbb85613b6b565b9450613b82565b94509492505050565b600082613bdb5760019050613c97565b81613be95760009050613c97565b8160018114613bff5760028114613c0957613c38565b6001915050613c97565b60ff841115613c1b57613c1a613885565b5b8360020a915084821115613c3257613c31613885565b5b50613c97565b5060208310610133831016604e8410600b8410161715613c6d5782820a905083811115613c6857613c67613885565b5b613c97565b613c7a8484846001613b78565b92509050818404811115613c9157613c90613885565b5b81810290505b9392505050565b6000613ca982613021565b9150613cb48361356d565b9250613ce17fffffffffffffffffffffffffffffffffffffffffffffffffffffffffffffffff8484613bcb565b905092915050565b6000613cf482613021565b9150613cff83613021565b9250817fffffffffffffffffffffffffffffffffffffffffffffffffffffffffffffffff0483118215151615613d3857613d37613885565b5b828202905092915050565b6000606082019050613d5860008301866131c8565b613d6560208301856131c8565b613d72604083018461302b565b949350505050565b7f45524332303a2064656372656173656420616c6c6f77616e63652062656c6f7760008201527f207a65726f000000000000000000000000000000000000000000000000000000602082015250565b6000613dd6602583613060565b9150613de182613d7a565b604082019050919050565b60006020820190508181036000830152613e0581613dc9565b9050919050565b7f45524332303a20746f74616c20746178206d757374206e6f742062652067726560008201527f61746572207468616e2031302500000000000000000000000000000000000000602082015250565b6000613e68602d83613060565b9150613e7382613e0c565b604082019050919050565b60006020820190508181036000830152613e9781613e5b565b9050919050565b6000604082019050613eb36000830185612ff7565b613ec060208301846131c8565b9392505050565b7f4f776e61626c653a206e6577206f776e657220697320746865207a65726f206160008201527f6464726573730000000000000000000000000000000000000000000000000000602082015250565b6000613f23602683613060565b9150613f2e82613ec7565b604082019050919050565b60006020820190508181036000830152613f5281613f16565b9050919050565b7f45524332303a20617070726f76652066726f6d20746865207a65726f2061646460008201527f7265737300000000000000000000000000000000000000000000000000000000602082015250565b6000613fb5602483613060565b9150613fc082613f59565b604082019050919050565b60006020820190508181036000830152613fe481613fa8565b9050919050565b7f45524332303a20617070726f766520746f20746865207a65726f20616464726560008201527f7373000000000000000000000000000000000000000000000000000000000000602082015250565b6000614047602283613060565b915061405282613feb565b604082019050919050565b600060208201905081810360008301526140768161403a565b9050919050565b7f45524332303a207472616e736665722066726f6d20746865207a65726f20616460008201527f6472657373000000000000000000000000000000000000000000000000000000602082015250565b60006140d9602583613060565b91506140e48261407d565b604082019050919050565b60006020820190508181036000830152614108816140cc565b9050919050565b7f45524332303a207472616e7366657220746f20746865207a65726f206164647260008201527f6573730000000000000000000000000000000000000000000000000000000000602082015250565b600061416b602383613060565b91506141768261410f565b604082019050919050565b6000602082019050818103600083015261419a8161415e565b9050919050565b7f45524332303a207472616e7366657220616d6f756e742065786365656473206260008201527f616c616e63650000000000000000000000000000000000000000000000000000602082015250565b60006141fd602683613060565b9150614208826141a1565b604082019050919050565b6000602082019050818103600083015261422c816141f0565b9050919050565b600061423e82613021565b915061424983613021565b92508282101561425c5761425b613885565b5b828203905092915050565b7f4661696c656420746f2073656e64204554480000000000000000000000000000600082015250565b600061429d601283613060565b91506142a882614267565b602082019050919050565b600060208201905081810360008301526142cc81614290565b9050919050565b7f45524332303a207472616e7366657220616d6f756e742065786365656473207460008201527f6865206d6178207472616e73616374696f6e20616d6f756e7400000000000000602082015250565b600061432f603983613060565b915061433a826142d3565b604082019050919050565b6000602082019050818103600083015261435e81614322565b9050919050565b7f45524332303a2062616c616e636520616d6f756e74206578636565646564206d60008201527f61782077616c6c657420616d6f756e74206c696d697400000000000000000000602082015250565b60006143c1603683613060565b91506143cc82614365565b604082019050919050565b600060208201905081810360008301526143f0816143b4565b9050919050565b7f4f776e61626c653a2063616c6c6572206973206e6f7420746865206f776e6572600082015250565b600061442d602083613060565b9150614438826143f7565b602082019050919050565b6000602082019050818103600083015261445c81614420565b9050919050565b7f45524332303a20696e73756666696369656e7420616c6c6f77616e6365000000600082015250565b6000614499601d83613060565b91506144a482614463565b602082019050919050565b600060208201905081810360008301526144c88161448c565b9050919050565b60006060820190506144e4600083018661302b565b6144f1602083018561302b565b6144fe604083018461302b565b949350505050565b7f4e487b7100000000000000000000000000000000000000000000000000000000600052603260045260246000fd5b60008151905061454481613124565b92915050565b6000602082840312156145605761455f61311a565b5b600061456e84828501614535565b91505092915050565b6000819050919050565b600061459c61459761459284614577565b613370565b613021565b9050919050565b6145ac81614581565b82525050565b600081519050919050565b600082825260208201905092915050565b6000819050602082019050919050565b6145e781612fe5565b82525050565b60006145f983836145de565b60208301905092915050565b6000602082019050919050565b600061461d826145b2565b61462781856145bd565b9350614632836145ce565b8060005b8381101561466357815161464a88826145ed565b975061465583614605565b925050600181019050614636565b5085935050505092915050565b600060a082019050614685600083018861302b565b61469260208301876145a3565b81810360408301526146a48186614612565b90506146b36060830185612ff7565b6146c0608083018461302b565b9695505050505050565b600060c0820190506146df6000830189612ff7565b6146ec602083018861302b565b6146f960408301876145a3565b61470660608301866145a3565b6147136080830185612ff7565b61472060a083018461302b565b979650505050505050565b60008151905061473a81613150565b92915050565b6000806000606084860312156147595761475861311a565b5b60006147678682870161472b565b93505060206147788682870161472b565b92505060406147898682870161472b565b915050925092509256fea2646970667358221220ddf845c2786d5c9f2601041eb97cbf83d2706aac7183b2d106519e665dc8aace64736f6c63430008090033",
  "linkReferences": {},
  "deployedLinkReferences": {}
}